{
  "contractName": "certi",
  "abi": [
    {
      "inputs": [],
      "stateMutability": "nonpayable",
      "type": "constructor"
    },
    {
      "anonymous": false,
      "inputs": [
        {
          "indexed": false,
          "internalType": "string",
          "name": "",
          "type": "string"
        },
        {
          "indexed": false,
          "internalType": "string",
          "name": "",
          "type": "string"
        },
        {
          "indexed": false,
          "internalType": "string",
          "name": "",
          "type": "string"
        },
        {
          "indexed": false,
          "internalType": "string",
          "name": "",
          "type": "string"
        },
        {
          "indexed": false,
          "internalType": "string",
          "name": "",
          "type": "string"
        }
      ],
      "name": "newCertificateAdded",
      "type": "event"
    },
    {
      "anonymous": false,
      "inputs": [
        {
          "indexed": true,
          "internalType": "address",
          "name": "issuerAddress",
          "type": "address"
        },
        {
          "indexed": false,
          "internalType": "string",
          "name": "certificateID",
          "type": "string"
        }
      ],
      "name": "newCertificateAddedBy",
      "type": "event"
    },
    {
      "inputs": [
        {
          "internalType": "string",
          "name": "",
          "type": "string"
        }
      ],
      "name": "certificateDetails",
      "outputs": [
        {
          "internalType": "string",
          "name": "courseName",
          "type": "string"
        },
        {
          "internalType": "string",
          "name": "candidateName",
          "type": "string"
        },
        {
          "internalType": "string",
          "name": "grade",
          "type": "string"
        },
        {
          "internalType": "string",
          "name": "date",
          "type": "string"
        }
      ],
      "stateMutability": "view",
      "type": "function",
      "constant": true
    },
    {
      "inputs": [
        {
          "internalType": "string",
          "name": "_certificateID",
          "type": "string"
        },
        {
          "internalType": "string",
          "name": "_courseName",
          "type": "string"
        },
        {
          "internalType": "string",
          "name": "_candidateName",
          "type": "string"
        },
        {
          "internalType": "string",
          "name": "_grade",
          "type": "string"
        },
        {
          "internalType": "string",
          "name": "_date",
          "type": "string"
        }
      ],
      "name": "newCertificate",
      "outputs": [],
      "stateMutability": "nonpayable",
      "type": "function"
    }
  ],
  "bytecode": "0x608060405234801561001057600080fd5b50336000806101000a81548173ffffffffffffffffffffffffffffffffffffffff021916908373ffffffffffffffffffffffffffffffffffffffff1602179055506109b6806100606000396000f3fe608060405234801561001057600080fd5b50600436106100365760003560e01c80636fe5033c1461003b578063b7b5e1d41461006e575b600080fd5b61005560048036038101906100509190610545565b61008a565b6040516100659493929190610718565b60405180910390f35b61008860048036038101906100839190610586565b6102f0565b005b6001818051602081018201805184825260208301602085012081835280955050505050506000915090508060000180546100c3906108ae565b80601f01602080910402602001604051908101604052809291908181526020018280546100ef906108ae565b801561013c5780601f106101115761010080835404028352916020019161013c565b820191906000526020600020905b81548152906001019060200180831161011f57829003601f168201915b505050505090806001018054610151906108ae565b80601f016020809104026020016040519081016040528092919081815260200182805461017d906108ae565b80156101ca5780601f1061019f576101008083540402835291602001916101ca565b820191906000526020600020905b8154815290600101906020018083116101ad57829003601f168201915b5050505050908060020180546101df906108ae565b80601f016020809104026020016040519081016040528092919081815260200182805461020b906108ae565b80156102585780601f1061022d57610100808354040283529160200191610258565b820191906000526020600020905b81548152906001019060200180831161023b57829003601f168201915b50505050509080600301805461026d906108ae565b80601f0160208091040260200160405190810160405280929190818152602001828054610299906108ae565b80156102e65780601f106102bb576101008083540402835291602001916102e6565b820191906000526020600020905b8154815290600101906020018083116102c957829003601f168201915b5050505050905084565b60405180608001604052808581526020018481526020018381526020018281525060018660405161032191906106df565b9081526020016040518091039020600082015181600001908051906020019061034b92919061043a565b50602082015181600101908051906020019061036892919061043a565b50604082015181600201908051906020019061038592919061043a565b5060608201518160030190805190602001906103a292919061043a565b509050507fae0221f5fc0ac1c8a22cde1d093b8d1a6bdd4d2d64998b09be3305185307b2bd85858585856040516103dd959493929190610779565b60405180910390a13373ffffffffffffffffffffffffffffffffffffffff167f53905e10b795c6a5884d44db7cdc57c61987d90181d3c17dad959a2451d831b18660405161042b91906106f6565b60405180910390a25050505050565b828054610446906108ae565b90600052602060002090601f01602090048101928261046857600085556104af565b82601f1061048157805160ff19168380011785556104af565b828001600101855582156104af579182015b828111156104ae578251825591602001919060010190610493565b5b5090506104bc91906104c0565b5090565b5b808211156104d95760008160009055506001016104c1565b5090565b60006104f06104eb84610814565b6107ef565b90508281526020810184848401111561050857600080fd5b61051384828561086c565b509392505050565b600082601f83011261052c57600080fd5b813561053c8482602086016104dd565b91505092915050565b60006020828403121561055757600080fd5b600082013567ffffffffffffffff81111561057157600080fd5b61057d8482850161051b565b91505092915050565b600080600080600060a0868803121561059e57600080fd5b600086013567ffffffffffffffff8111156105b857600080fd5b6105c48882890161051b565b955050602086013567ffffffffffffffff8111156105e157600080fd5b6105ed8882890161051b565b945050604086013567ffffffffffffffff81111561060a57600080fd5b6106168882890161051b565b935050606086013567ffffffffffffffff81111561063357600080fd5b61063f8882890161051b565b925050608086013567ffffffffffffffff81111561065c57600080fd5b6106688882890161051b565b9150509295509295909350565b600061068082610845565b61068a8185610850565b935061069a81856020860161087b565b6106a38161096f565b840191505092915050565b60006106b982610845565b6106c38185610861565b93506106d381856020860161087b565b80840191505092915050565b60006106eb82846106ae565b915081905092915050565b600060208201905081810360008301526107108184610675565b905092915050565b600060808201905081810360008301526107328187610675565b905081810360208301526107468186610675565b9050818103604083015261075a8185610675565b9050818103606083015261076e8184610675565b905095945050505050565b600060a08201905081810360008301526107938188610675565b905081810360208301526107a78187610675565b905081810360408301526107bb8186610675565b905081810360608301526107cf8185610675565b905081810360808301526107e38184610675565b90509695505050505050565b60006107f961080a565b905061080582826108e0565b919050565b6000604051905090565b600067ffffffffffffffff82111561082f5761082e610940565b5b6108388261096f565b9050602081019050919050565b600081519050919050565b600082825260208201905092915050565b600081905092915050565b82818337600083830152505050565b60005b8381101561089957808201518184015260208101905061087e565b838111156108a8576000848401525b50505050565b600060028204905060018216806108c657607f821691505b602082108114156108da576108d9610911565b5b50919050565b6108e98261096f565b810181811067ffffffffffffffff8211171561090857610907610940565b5b80604052505050565b7f4e487b7100000000000000000000000000000000000000000000000000000000600052602260045260246000fd5b7f4e487b7100000000000000000000000000000000000000000000000000000000600052604160045260246000fd5b6000601f19601f830116905091905056fea2646970667358221220a8f7a701172fdf26e614eb31f8f6f2e858aa4048c22108df6014a2519186d46464736f6c63430008010033",
  "immutableReferences": {},
  "source": "// SPDX-License-Identifier: GPL-3.0\npragma solidity 0.8.1;\n\ncontract certi {\n    \n  address admin;\n  \n  constructor() {\n    admin = msg.sender;    \n  }\n  \n  modifier onlyAdmin {\n      require(msg.sender == admin, \"Insuficient privilage\");\n      _;\n  }\n  \n  event newCertificateAdded(string,string,string,string,string);\n  event newCertificateAddedBy(address indexed issuerAddress, string certificateID);\n\n  struct certificate {\n      string courseName;\n      string candidateName;\n      string grade;\n      string date;\n  }\n  \n  mapping (string => certificate) public certificateDetails;\n  \n  function newCertificate (\n      string memory _certificateID,\n      string memory _courseName,\n      string memory _candidateName,\n      string memory _grade,\n      string memory _date ) public  {\n          certificateDetails[_certificateID] = certificate(\n                                                    _courseName,\n                                                    _candidateName,\n                                                    _grade,\n                                                    _date);\n          emit newCertificateAdded(_certificateID, _courseName,_candidateName,_grade,_date);\n          emit newCertificateAddedBy(msg.sender, _certificateID);\n      }\n}",
  "sourcePath": "/home/node-11/Express-Certificate-Dapp/contracts/CA.sol",
  "compiler": {
    "name": "solc",
    "version": "0.8.1+commit.df193b15.Emscripten.clang"
  },
  "schemaVersion": "3.4.4",
  "updatedAt": "2022-05-06T06:58:15.554Z",
  "networkType": "ethereum",
  "devdoc": {
    "kind": "dev",
    "methods": {},
    "version": 1
  },
  "userdoc": {
    "kind": "user",
    "methods": {},
    "version": 1
  }
}